{
  "contractName": "NFiTMarket",
  "abi": [
    {
      "inputs": [
        {
          "internalType": "uint256",
          "name": "",
          "type": "uint256"
        }
      ],
      "name": "id2NFiTItem",
      "outputs": [
        {
          "internalType": "uint256",
          "name": "itemId",
          "type": "uint256"
        },
        {
          "internalType": "address",
          "name": "nftContract",
          "type": "address"
        },
        {
          "internalType": "uint256",
          "name": "tokenId",
          "type": "uint256"
        },
        {
          "internalType": "address payable",
          "name": "creator",
          "type": "address"
        },
        {
          "internalType": "address payable",
          "name": "pawnor",
          "type": "address"
        },
        {
          "internalType": "address payable",
          "name": "owner",
          "type": "address"
        },
        {
          "internalType": "uint256",
          "name": "sellPrice",
          "type": "uint256"
        },
        {
          "internalType": "uint256",
          "name": "loanPrice",
          "type": "uint256"
        },
        {
          "internalType": "uint256",
          "name": "redeemPrice",
          "type": "uint256"
        },
        {
          "internalType": "uint256",
          "name": "royalty",
          "type": "uint256"
        },
        {
          "internalType": "uint256",
          "name": "deadline",
          "type": "uint256"
        },
        {
          "internalType": "enum NFiTMarket.State",
          "name": "state",
          "type": "uint8"
        }
      ],
      "stateMutability": "view",
      "type": "function"
    },
    {
      "inputs": [],
      "name": "getPublishedNFT",
      "outputs": [
        {
          "internalType": "uint256[]",
          "name": "itemIdList",
          "type": "uint256[]"
        }
      ],
      "stateMutability": "view",
      "type": "function"
    },
    {
      "inputs": [
        {
          "internalType": "address",
          "name": "user",
          "type": "address"
        }
      ],
      "name": "getUserOwnedNFT",
      "outputs": [
        {
          "internalType": "uint256[]",
          "name": "itemIdList",
          "type": "uint256[]"
        }
      ],
      "stateMutability": "view",
      "type": "function"
    },
    {
      "inputs": [
        {
          "internalType": "address",
          "name": "user",
          "type": "address"
        }
      ],
      "name": "getUserPawnedNFT",
      "outputs": [
        {
          "internalType": "uint256[]",
          "name": "itemIdList",
          "type": "uint256[]"
        }
      ],
      "stateMutability": "view",
      "type": "function"
    },
    {
      "inputs": [
        {
          "internalType": "address",
          "name": "user",
          "type": "address"
        }
      ],
      "name": "getUserReceivedNFT",
      "outputs": [
        {
          "internalType": "uint256[]",
          "name": "itemIdList",
          "type": "uint256[]"
        }
      ],
      "stateMutability": "view",
      "type": "function"
    },
    {
      "inputs": [
        {
          "internalType": "uint256",
          "name": "itemId",
          "type": "uint256"
        }
      ],
      "name": "getItemInfo",
      "outputs": [
        {
          "components": [
            {
              "internalType": "uint256",
              "name": "itemId",
              "type": "uint256"
            },
            {
              "internalType": "address",
              "name": "nftContract",
              "type": "address"
            },
            {
              "internalType": "uint256",
              "name": "tokenId",
              "type": "uint256"
            },
            {
              "internalType": "address payable",
              "name": "creator",
              "type": "address"
            },
            {
              "internalType": "address payable",
              "name": "pawnor",
              "type": "address"
            },
            {
              "internalType": "address payable",
              "name": "owner",
              "type": "address"
            },
            {
              "internalType": "uint256",
              "name": "sellPrice",
              "type": "uint256"
            },
            {
              "internalType": "uint256",
              "name": "loanPrice",
              "type": "uint256"
            },
            {
              "internalType": "uint256",
              "name": "redeemPrice",
              "type": "uint256"
            },
            {
              "internalType": "uint256",
              "name": "royalty",
              "type": "uint256"
            },
            {
              "internalType": "uint256",
              "name": "deadline",
              "type": "uint256"
            },
            {
              "internalType": "enum NFiTMarket.State",
              "name": "state",
              "type": "uint8"
            }
          ],
          "internalType": "struct NFiTMarket.NFiTItem",
          "name": "",
          "type": "tuple"
        }
      ],
      "stateMutability": "view",
      "type": "function"
    },
    {
      "inputs": [
        {
          "internalType": "address",
          "name": "nftContract",
          "type": "address"
        },
        {
          "internalType": "uint256",
          "name": "tokenId",
          "type": "uint256"
        },
        {
          "internalType": "uint256",
          "name": "royalty",
          "type": "uint256"
        }
      ],
      "name": "uploadNFT",
      "outputs": [
        {
          "internalType": "uint256",
          "name": "itemId",
          "type": "uint256"
        }
      ],
      "stateMutability": "nonpayable",
      "type": "function"
    },
    {
      "inputs": [
        {
          "internalType": "uint256",
          "name": "itemId",
          "type": "uint256"
        }
      ],
      "name": "downloadNFT",
      "outputs": [],
      "stateMutability": "nonpayable",
      "type": "function"
    },
    {
      "inputs": [
        {
          "internalType": "uint256",
          "name": "itemId",
          "type": "uint256"
        },
        {
          "internalType": "uint32",
          "name": "sellPrice",
          "type": "uint32"
        },
        {
          "internalType": "uint32",
          "name": "loanPrice",
          "type": "uint32"
        },
        {
          "internalType": "uint32",
          "name": "redeemPrice",
          "type": "uint32"
        },
        {
          "internalType": "uint32",
          "name": "deadline",
          "type": "uint32"
        }
      ],
      "name": "sellNFT",
      "outputs": [],
      "stateMutability": "nonpayable",
      "type": "function"
    },
    {
      "inputs": [
        {
          "internalType": "uint256",
          "name": "itemId",
          "type": "uint256"
        }
      ],
      "name": "buyNFT",
      "outputs": [],
      "stateMutability": "payable",
      "type": "function"
    },
    {
      "inputs": [
        {
          "internalType": "uint256",
          "name": "itemId",
          "type": "uint256"
        }
      ],
      "name": "receiveNFT",
      "outputs": [],
      "stateMutability": "payable",
      "type": "function"
    },
    {
      "inputs": [
        {
          "internalType": "uint256",
          "name": "itemId",
          "type": "uint256"
        }
      ],
      "name": "redeemNFT",
      "outputs": [],
      "stateMutability": "payable",
      "type": "function"
    },
    {
      "inputs": [
        {
          "internalType": "uint256",
          "name": "itemId",
          "type": "uint256"
        }
      ],
      "name": "retrieveNFT",
      "outputs": [],
      "stateMutability": "nonpayable",
      "type": "function"
    }
  ],
  "bytecode": "0x608060405234801561001057600080fd5b5061323c806100206000396000f3fe6080604052600436106100c25760003560e01c806352d7d8101161007f57806386cae5ae1161005957806386cae5ae1461025a5780638c3531ce14610297578063bee860e5146102d4578063de7fe3e7146102fd576100c2565b806352d7d810146101f757806358dc2cdb146102135780637d3f3d991461022f576100c2565b80630a1d7c5f146100c757806323d33df3146100f05780632dd6075d1461012d57806338fba7ac1461017557806347b3406e146101b257806351ed8288146101db575b600080fd5b3480156100d357600080fd5b506100ee60048036038101906100e99190612621565b61033a565b005b3480156100fc57600080fd5b50610117600480360381019061011291906125a9565b6105cd565b6040516101249190612c42565b60405180910390f35b34801561013957600080fd5b50610154600480360381019061014f9190612621565b6107d7565b60405161016c9c9b9a99989796959493929190612e3b565b60405180910390f35b34801561018157600080fd5b5061019c600480360381019061019791906125d2565b6108c4565b6040516101a99190612e20565b60405180910390f35b3480156101be57600080fd5b506101d960048036038101906101d49190612621565b610c0c565b005b6101f560048036038101906101f09190612621565b610ea9565b005b610211600480360381019061020c9190612621565b61122d565b005b61022d60048036038101906102289190612621565b611558565b005b34801561023b57600080fd5b5061024461192b565b6040516102519190612c42565b60405180910390f35b34801561026657600080fd5b50610281600480360381019061027c91906125a9565b611ac6565b60405161028e9190612c42565b60405180910390f35b3480156102a357600080fd5b506102be60048036038101906102b991906125a9565b611cd0565b6040516102cb9190612c42565b60405180910390f35b3480156102e057600080fd5b506102fb60048036038101906102f6919061264a565b611eda565b005b34801561030957600080fd5b50610324600480360381019061031f9190612621565b6121ec565b6040516103319190612e04565b60405180910390f35b3373ffffffffffffffffffffffffffffffffffffffff166001600083815260200190815260200160002060040160009054906101000a900473ffffffffffffffffffffffffffffffffffffffff1673ffffffffffffffffffffffffffffffffffffffff16146103de576040517f08c379a00000000000000000000000000000000000000000000000000000000081526004016103d590612d84565b60405180910390fd5b3373ffffffffffffffffffffffffffffffffffffffff166001600083815260200190815260200160002060050160009054906101000a900473ffffffffffffffffffffffffffffffffffffffff1673ffffffffffffffffffffffffffffffffffffffff1614610482576040517f08c379a000000000000000000000000000000000000000000000000000000000815260040161047990612dc4565b60405180910390fd5b4260016000838152602001908152602001600020600a0154106104da576040517f08c379a00000000000000000000000000000000000000000000000000000000081526004016104d190612c64565b60405180910390fd5b6001600082815260200190815260200160002060040160009054906101000a900473ffffffffffffffffffffffffffffffffffffffff166001600083815260200190815260200160002060050160006101000a81548173ffffffffffffffffffffffffffffffffffffffff021916908373ffffffffffffffffffffffffffffffffffffffff160217905550600060016000838152602001908152602001600020600b0160006101000a81548160ff021916908360038111156105c5577f4e487b7100000000000000000000000000000000000000000000000000000000600052602160045260246000fd5b021790555050565b606060006105db600061243f565b90508067ffffffffffffffff81111561061d577f4e487b7100000000000000000000000000000000000000000000000000000000600052604160045260246000fd5b60405190808252806020026020018201604052801561064b5781602001602082028036833780820191505090505b509150600080600190505b8281116107cf5760026003811115610697577f4e487b7100000000000000000000000000000000000000000000000000000000600052602160045260246000fd5b60016000838152602001908152602001600020600b0160009054906101000a900460ff1660038111156106f3577f4e487b7100000000000000000000000000000000000000000000000000000000600052602160045260246000fd5b14801561076157508473ffffffffffffffffffffffffffffffffffffffff166001600083815260200190815260200160002060040160009054906101000a900473ffffffffffffffffffffffffffffffffffffffff1673ffffffffffffffffffffffffffffffffffffffff16145b156107bc57808483815181106107a0577f4e487b7100000000000000000000000000000000000000000000000000000000600052603260045260246000fd5b6020026020010181815250506001826107b99190612f3f565b91505b80806107c7906130d7565b915050610656565b505050919050565b60016020528060005260406000206000915090508060000154908060010160009054906101000a900473ffffffffffffffffffffffffffffffffffffffff16908060020154908060030160009054906101000a900473ffffffffffffffffffffffffffffffffffffffff16908060040160009054906101000a900473ffffffffffffffffffffffffffffffffffffffff16908060050160009054906101000a900473ffffffffffffffffffffffffffffffffffffffff169080600601549080600701549080600801549080600901549080600a01549080600b0160009054906101000a900460ff1690508c565b60006108d0600061244d565b6108da600061243f565b90506040518061018001604052808281526020018573ffffffffffffffffffffffffffffffffffffffff1681526020018481526020013373ffffffffffffffffffffffffffffffffffffffff168152602001600073ffffffffffffffffffffffffffffffffffffffff1681526020013373ffffffffffffffffffffffffffffffffffffffff16815260200160008152602001600081526020016000815260200183815260200160008152602001600060038111156109c1577f4e487b7100000000000000000000000000000000000000000000000000000000600052602160045260246000fd5b815250600160008381526020019081526020016000206000820151816000015560208201518160010160006101000a81548173ffffffffffffffffffffffffffffffffffffffff021916908373ffffffffffffffffffffffffffffffffffffffff1602179055506040820151816002015560608201518160030160006101000a81548173ffffffffffffffffffffffffffffffffffffffff021916908373ffffffffffffffffffffffffffffffffffffffff16021790555060808201518160040160006101000a81548173ffffffffffffffffffffffffffffffffffffffff021916908373ffffffffffffffffffffffffffffffffffffffff16021790555060a08201518160050160006101000a81548173ffffffffffffffffffffffffffffffffffffffff021916908373ffffffffffffffffffffffffffffffffffffffff16021790555060c0820151816006015560e082015181600701556101008201518160080155610120820151816009015561014082015181600a015561016082015181600b0160006101000a81548160ff02191690836003811115610b8e577f4e487b7100000000000000000000000000000000000000000000000000000000600052602160045260246000fd5b02179055509050508373ffffffffffffffffffffffffffffffffffffffff166323b872dd3330866040518463ffffffff1660e01b8152600401610bd393929190612c0b565b600060405180830381600087803b158015610bed57600080fd5b505af1158015610c01573d6000803e3d6000fd5b505050509392505050565b3373ffffffffffffffffffffffffffffffffffffffff166001600083815260200190815260200160002060050160009054906101000a900473ffffffffffffffffffffffffffffffffffffffff1673ffffffffffffffffffffffffffffffffffffffff1614610cb0576040517f08c379a0000000000000000000000000000000000000000000000000000000008152600401610ca790612d84565b60405180910390fd5b60006003811115610cea577f4e487b7100000000000000000000000000000000000000000000000000000000600052602160045260246000fd5b60016000838152602001908152602001600020600b0160009054906101000a900460ff166003811115610d46577f4e487b7100000000000000000000000000000000000000000000000000000000600052602160045260246000fd5b14610d86576040517f08c379a0000000000000000000000000000000000000000000000000000000008152600401610d7d90612ca4565b60405180910390fd5b600360016000838152602001908152602001600020600b0160006101000a81548160ff02191690836003811115610de6577f4e487b7100000000000000000000000000000000000000000000000000000000600052602160045260246000fd5b02179055506001600082815260200190815260200160002060010160009054906101000a900473ffffffffffffffffffffffffffffffffffffffff1673ffffffffffffffffffffffffffffffffffffffff166323b872dd303360016000868152602001908152602001600020600201546040518463ffffffff1660e01b8152600401610e7493929190612c0b565b600060405180830381600087803b158015610e8e57600080fd5b505af1158015610ea2573d6000803e3d6000fd5b5050505050565b60016003811115610ee3577f4e487b7100000000000000000000000000000000000000000000000000000000600052602160045260246000fd5b60016000838152602001908152602001600020600b0160009054906101000a900460ff166003811115610f3f577f4e487b7100000000000000000000000000000000000000000000000000000000600052602160045260246000fd5b14610f7f576040517f08c379a0000000000000000000000000000000000000000000000000000000008152600401610f7690612de4565b60405180910390fd5b6000600160008381526020019081526020016000206006015411610fd8576040517f08c379a0000000000000000000000000000000000000000000000000000000008152600401610fcf90612c84565b60405180910390fd5b6001600082815260200190815260200160002060060154341015611031576040517f08c379a000000000000000000000000000000000000000000000000000000000815260040161102890612d04565b60405180910390fd5b600060016000838152602001908152602001600020600b0160006101000a81548160ff02191690836003811115611091577f4e487b7100000000000000000000000000000000000000000000000000000000600052602160045260246000fd5b0217905550336001600083815260200190815260200160002060050160006101000a81548173ffffffffffffffffffffffffffffffffffffffff021916908373ffffffffffffffffffffffffffffffffffffffff1602179055506000606461111860016000858152602001908152602001600020600901543461246390919063ffffffff16565b6111229190612f95565b90506001600083815260200190815260200160002060030160009054906101000a900473ffffffffffffffffffffffffffffffffffffffff1673ffffffffffffffffffffffffffffffffffffffff166108fc829081150290604051600060405180830381858888f193505050501580156111a0573d6000803e3d6000fd5b506001600083815260200190815260200160002060050160009054906101000a900473ffffffffffffffffffffffffffffffffffffffff1673ffffffffffffffffffffffffffffffffffffffff166108fc82346111fd9190613020565b9081150290604051600060405180830381858888f19350505050158015611228573d6000803e3d6000fd5b505050565b60016003811115611267577f4e487b7100000000000000000000000000000000000000000000000000000000600052602160045260246000fd5b60016000838152602001908152602001600020600b0160009054906101000a900460ff1660038111156112c3577f4e487b7100000000000000000000000000000000000000000000000000000000600052602160045260246000fd5b14611303576040517f08c379a00000000000000000000000000000000000000000000000000000000081526004016112fa90612de4565b60405180910390fd5b600160008281526020019081526020016000206007015434101561135c576040517f08c379a000000000000000000000000000000000000000000000000000000000815260040161135390612da4565b60405180910390fd5b600260016000838152602001908152602001600020600b0160006101000a81548160ff021916908360038111156113bc577f4e487b7100000000000000000000000000000000000000000000000000000000600052602160045260246000fd5b0217905550336001600083815260200190815260200160002060040160006101000a81548173ffffffffffffffffffffffffffffffffffffffff021916908373ffffffffffffffffffffffffffffffffffffffff1602179055506000606461144360016000858152602001908152602001600020600901543461246390919063ffffffff16565b61144d9190612f95565b90506001600083815260200190815260200160002060030160009054906101000a900473ffffffffffffffffffffffffffffffffffffffff1673ffffffffffffffffffffffffffffffffffffffff166108fc829081150290604051600060405180830381858888f193505050501580156114cb573d6000803e3d6000fd5b506001600083815260200190815260200160002060050160009054906101000a900473ffffffffffffffffffffffffffffffffffffffff1673ffffffffffffffffffffffffffffffffffffffff166108fc82346115289190613020565b9081150290604051600060405180830381858888f19350505050158015611553573d6000803e3d6000fd5b505050565b3373ffffffffffffffffffffffffffffffffffffffff166001600083815260200190815260200160002060050160009054906101000a900473ffffffffffffffffffffffffffffffffffffffff1673ffffffffffffffffffffffffffffffffffffffff16146115fc576040517f08c379a00000000000000000000000000000000000000000000000000000000081526004016115f390612dc4565b60405180910390fd5b60026003811115611636577f4e487b7100000000000000000000000000000000000000000000000000000000600052602160045260246000fd5b60016000838152602001908152602001600020600b0160009054906101000a900460ff166003811115611692577f4e487b7100000000000000000000000000000000000000000000000000000000600052602160045260246000fd5b146116d2576040517f08c379a00000000000000000000000000000000000000000000000000000000081526004016116c990612d24565b60405180910390fd5b600160008281526020019081526020016000206008015434101561172b576040517f08c379a000000000000000000000000000000000000000000000000000000000815260040161172290612da4565b60405180910390fd5b4260016000838152602001908152602001600020600a01541015611784576040517f08c379a000000000000000000000000000000000000000000000000000000000815260040161177b90612d64565b60405180910390fd5b600060016000838152602001908152602001600020600b0160006101000a81548160ff021916908360038111156117e4577f4e487b7100000000000000000000000000000000000000000000000000000000600052602160045260246000fd5b02179055506000606461181660016000858152602001908152602001600020600901543461246390919063ffffffff16565b6118209190612f95565b90506001600083815260200190815260200160002060030160009054906101000a900473ffffffffffffffffffffffffffffffffffffffff1673ffffffffffffffffffffffffffffffffffffffff166108fc829081150290604051600060405180830381858888f1935050505015801561189e573d6000803e3d6000fd5b506001600083815260200190815260200160002060040160009054906101000a900473ffffffffffffffffffffffffffffffffffffffff1673ffffffffffffffffffffffffffffffffffffffff166108fc82346118fb9190613020565b9081150290604051600060405180830381858888f19350505050158015611926573d6000803e3d6000fd5b505050565b60606000611939600061243f565b90508067ffffffffffffffff81111561197b577f4e487b7100000000000000000000000000000000000000000000000000000000600052604160045260246000fd5b6040519080825280602002602001820160405280156119a95781602001602082028036833780820191505090505b509150600080600190505b828111611ac057600160038111156119f5577f4e487b7100000000000000000000000000000000000000000000000000000000600052602160045260246000fd5b60016000838152602001908152602001600020600b0160009054906101000a900460ff166003811115611a51577f4e487b7100000000000000000000000000000000000000000000000000000000600052602160045260246000fd5b1415611aad5780848381518110611a91577f4e487b7100000000000000000000000000000000000000000000000000000000600052603260045260246000fd5b602002602001018181525050600182611aaa9190612f3f565b91505b8080611ab8906130d7565b9150506119b4565b50505090565b60606000611ad4600061243f565b90508067ffffffffffffffff811115611b16577f4e487b7100000000000000000000000000000000000000000000000000000000600052604160045260246000fd5b604051908082528060200260200182016040528015611b445781602001602082028036833780820191505090505b509150600080600190505b828111611cc85760006003811115611b90577f4e487b7100000000000000000000000000000000000000000000000000000000600052602160045260246000fd5b60016000838152602001908152602001600020600b0160009054906101000a900460ff166003811115611bec577f4e487b7100000000000000000000000000000000000000000000000000000000600052602160045260246000fd5b148015611c5a57508473ffffffffffffffffffffffffffffffffffffffff166001600083815260200190815260200160002060050160009054906101000a900473ffffffffffffffffffffffffffffffffffffffff1673ffffffffffffffffffffffffffffffffffffffff16145b15611cb55780848381518110611c99577f4e487b7100000000000000000000000000000000000000000000000000000000600052603260045260246000fd5b602002602001018181525050600182611cb29190612f3f565b91505b8080611cc0906130d7565b915050611b4f565b505050919050565b60606000611cde600061243f565b90508067ffffffffffffffff811115611d20577f4e487b7100000000000000000000000000000000000000000000000000000000600052604160045260246000fd5b604051908082528060200260200182016040528015611d4e5781602001602082028036833780820191505090505b509150600080600190505b828111611ed25760026003811115611d9a577f4e487b7100000000000000000000000000000000000000000000000000000000600052602160045260246000fd5b60016000838152602001908152602001600020600b0160009054906101000a900460ff166003811115611df6577f4e487b7100000000000000000000000000000000000000000000000000000000600052602160045260246000fd5b148015611e6457508473ffffffffffffffffffffffffffffffffffffffff166001600083815260200190815260200160002060050160009054906101000a900473ffffffffffffffffffffffffffffffffffffffff1673ffffffffffffffffffffffffffffffffffffffff16145b15611ebf5780848381518110611ea3577f4e487b7100000000000000000000000000000000000000000000000000000000600052603260045260246000fd5b602002602001018181525050600182611ebc9190612f3f565b91505b8080611eca906130d7565b915050611d59565b505050919050565b3373ffffffffffffffffffffffffffffffffffffffff166001600087815260200190815260200160002060050160009054906101000a900473ffffffffffffffffffffffffffffffffffffffff1673ffffffffffffffffffffffffffffffffffffffff1614611f7e576040517f08c379a0000000000000000000000000000000000000000000000000000000008152600401611f7590612d44565b60405180910390fd5b60006003811115611fb8577f4e487b7100000000000000000000000000000000000000000000000000000000600052602160045260246000fd5b60016000878152602001908152602001600020600b0160009054906101000a900460ff166003811115612014577f4e487b7100000000000000000000000000000000000000000000000000000000600052602160045260246000fd5b14612054576040517f08c379a000000000000000000000000000000000000000000000000000000000815260040161204b90612ca4565b60405180910390fd5b60008463ffffffff16118061206f575060008363ffffffff16115b6120ae576040517f08c379a00000000000000000000000000000000000000000000000000000000081526004016120a590612ce4565b60405180910390fd5b8263ffffffff168263ffffffff1610156120fd576040517f08c379a00000000000000000000000000000000000000000000000000000000081526004016120f490612cc4565b60405180910390fd5b6001806000878152602001908152602001600020600b0160006101000a81548160ff0219169083600381111561215c577f4e487b7100000000000000000000000000000000000000000000000000000000600052602160045260246000fd5b02179055508363ffffffff1660016000878152602001908152602001600020600601819055508263ffffffff1660016000878152602001908152602001600020600701819055508163ffffffff1660016000878152602001908152602001600020600801819055508063ffffffff1660016000878152602001908152602001600020600a01819055505050505050565b6121f4612479565b6001600083815260200190815260200160002060405180610180016040529081600082015481526020016001820160009054906101000a900473ffffffffffffffffffffffffffffffffffffffff1673ffffffffffffffffffffffffffffffffffffffff1673ffffffffffffffffffffffffffffffffffffffff168152602001600282015481526020016003820160009054906101000a900473ffffffffffffffffffffffffffffffffffffffff1673ffffffffffffffffffffffffffffffffffffffff1673ffffffffffffffffffffffffffffffffffffffff1681526020016004820160009054906101000a900473ffffffffffffffffffffffffffffffffffffffff1673ffffffffffffffffffffffffffffffffffffffff1673ffffffffffffffffffffffffffffffffffffffff1681526020016005820160009054906101000a900473ffffffffffffffffffffffffffffffffffffffff1673ffffffffffffffffffffffffffffffffffffffff1673ffffffffffffffffffffffffffffffffffffffff16815260200160068201548152602001600782015481526020016008820154815260200160098201548152602001600a8201548152602001600b820160009054906101000a900460ff1660038111156123fc577f4e487b7100000000000000000000000000000000000000000000000000000000600052602160045260246000fd5b6003811115612434577f4e487b7100000000000000000000000000000000000000000000000000000000600052602160045260246000fd5b815250509050919050565b600081600001549050919050565b6001816000016000828254019250508190555050565b600081836124719190612fc6565b905092915050565b60405180610180016040528060008152602001600073ffffffffffffffffffffffffffffffffffffffff16815260200160008152602001600073ffffffffffffffffffffffffffffffffffffffff168152602001600073ffffffffffffffffffffffffffffffffffffffff168152602001600073ffffffffffffffffffffffffffffffffffffffff168152602001600081526020016000815260200160008152602001600081526020016000815260200160006003811115612564577f4e487b7100000000000000000000000000000000000000000000000000000000600052602160045260246000fd5b81525090565b600081359050612579816131c1565b92915050565b60008135905061258e816131d8565b92915050565b6000813590506125a3816131ef565b92915050565b6000602082840312156125bb57600080fd5b60006125c98482850161256a565b91505092915050565b6000806000606084860312156125e757600080fd5b60006125f58682870161256a565b93505060206126068682870161257f565b92505060406126178682870161257f565b9150509250925092565b60006020828403121561263357600080fd5b60006126418482850161257f565b91505092915050565b600080600080600060a0868803121561266257600080fd5b60006126708882890161257f565b955050602061268188828901612594565b945050604061269288828901612594565b93505060606126a388828901612594565b92505060806126b488828901612594565b9150509295509295909350565b60006126cd8383612bed565b60208301905092915050565b6126e281613066565b82525050565b6126f181613066565b82525050565b61270081613054565b82525050565b61270f81613054565b82525050565b600061272082612f05565b61272a8185612f1d565b935061273583612ef5565b8060005b8381101561276657815161274d88826126c1565b975061275883612f10565b925050600181019050612739565b5085935050505092915050565b61277c816130c5565b82525050565b61278b816130c5565b82525050565b600061279e601283612f2e565b91507f546865204e4654206973206e6f742064756500000000000000000000000000006000830152602082019050919050565b60006127de601783612f2e565b91507f546865204e4654206973206e6f7420666f722073656c6c0000000000000000006000830152602082019050919050565b600061281e601483612f2e565b91507f4e6f74204e6f726d616c205374617465204e6f770000000000000000000000006000830152602082019050919050565b600061285e602883612f2e565b91507f5468652072656465656d207072696365206973206c657373207468616e206c6f60008301527f616e2070726963650000000000000000000000000000000000000000000000006020830152604082019050919050565b60006128c4601a83612f2e565b91507f43686f6f7365206569746865722073656c6c206f72206c6f616e0000000000006000830152602082019050919050565b6000612904601683612f2e565b91507f4e6f20656e6f7567682076616c756520746f20627579000000000000000000006000830152602082019050919050565b6000612944601883612f2e565b91507f546865204e4654206973206e6f7420696e205061776e656400000000000000006000830152602082019050919050565b6000612984601983612f2e565b91507f4e6f207065726d697373696f6e20746f2073656c6c204e4654000000000000006000830152602082019050919050565b60006129c4600e83612f2e565b91507f546865204e4654206973206475650000000000000000000000000000000000006000830152602082019050919050565b6000612a04601d83612f2e565b91507f4e6f207065726d697373696f6e20746f207265747269657665204e46540000006000830152602082019050919050565b6000612a44601783612f2e565b91507f4e6f20656e6f7567682076616c756520746f206c6f616e0000000000000000006000830152602082019050919050565b6000612a84601b83612f2e565b91507f4e6f207065726d697373696f6e20746f2072656465656d204e465400000000006000830152602082019050919050565b6000612ac4601b83612f2e565b91507f546865204e4654206973206e6f7420696e205075626c697368656400000000006000830152602082019050919050565b61018082016000820151612b0e6000850182612bed565b506020820151612b2160208501826126f7565b506040820151612b346040850182612bed565b506060820151612b4760608501826126d9565b506080820151612b5a60808501826126d9565b5060a0820151612b6d60a08501826126d9565b5060c0820151612b8060c0850182612bed565b5060e0820151612b9360e0850182612bed565b50610100820151612ba8610100850182612bed565b50610120820151612bbd610120850182612bed565b50610140820151612bd2610140850182612bed565b50610160820151612be7610160850182612773565b50505050565b612bf6816130ab565b82525050565b612c05816130ab565b82525050565b6000606082019050612c206000830186612706565b612c2d6020830185612706565b612c3a6040830184612bfc565b949350505050565b60006020820190508181036000830152612c5c8184612715565b905092915050565b60006020820190508181036000830152612c7d81612791565b9050919050565b60006020820190508181036000830152612c9d816127d1565b9050919050565b60006020820190508181036000830152612cbd81612811565b9050919050565b60006020820190508181036000830152612cdd81612851565b9050919050565b60006020820190508181036000830152612cfd816128b7565b9050919050565b60006020820190508181036000830152612d1d816128f7565b9050919050565b60006020820190508181036000830152612d3d81612937565b9050919050565b60006020820190508181036000830152612d5d81612977565b9050919050565b60006020820190508181036000830152612d7d816129b7565b9050919050565b60006020820190508181036000830152612d9d816129f7565b9050919050565b60006020820190508181036000830152612dbd81612a37565b9050919050565b60006020820190508181036000830152612ddd81612a77565b9050919050565b60006020820190508181036000830152612dfd81612ab7565b9050919050565b600061018082019050612e1a6000830184612af7565b92915050565b6000602082019050612e356000830184612bfc565b92915050565b600061018082019050612e51600083018f612bfc565b612e5e602083018e612706565b612e6b604083018d612bfc565b612e78606083018c6126e8565b612e85608083018b6126e8565b612e9260a083018a6126e8565b612e9f60c0830189612bfc565b612eac60e0830188612bfc565b612eba610100830187612bfc565b612ec8610120830186612bfc565b612ed6610140830185612bfc565b612ee4610160830184612782565b9d9c50505050505050505050505050565b6000819050602082019050919050565b600081519050919050565b6000602082019050919050565b600082825260208201905092915050565b600082825260208201905092915050565b6000612f4a826130ab565b9150612f55836130ab565b9250827fffffffffffffffffffffffffffffffffffffffffffffffffffffffffffffffff03821115612f8a57612f89613120565b5b828201905092915050565b6000612fa0826130ab565b9150612fab836130ab565b925082612fbb57612fba61314f565b5b828204905092915050565b6000612fd1826130ab565b9150612fdc836130ab565b9250817fffffffffffffffffffffffffffffffffffffffffffffffffffffffffffffffff048311821515161561301557613014613120565b5b828202905092915050565b600061302b826130ab565b9150613036836130ab565b92508282101561304957613048613120565b5b828203905092915050565b600061305f8261308b565b9050919050565b60006130718261308b565b9050919050565b6000819050613086826131ad565b919050565b600073ffffffffffffffffffffffffffffffffffffffff82169050919050565b6000819050919050565b600063ffffffff82169050919050565b60006130d082613078565b9050919050565b60006130e2826130ab565b91507fffffffffffffffffffffffffffffffffffffffffffffffffffffffffffffffff82141561311557613114613120565b5b600182019050919050565b7f4e487b7100000000000000000000000000000000000000000000000000000000600052601160045260246000fd5b7f4e487b7100000000000000000000000000000000000000000000000000000000600052601260045260246000fd5b7f4e487b7100000000000000000000000000000000000000000000000000000000600052602160045260246000fd5b600481106131be576131bd61317e565b5b50565b6131ca81613054565b81146131d557600080fd5b50565b6131e1816130ab565b81146131ec57600080fd5b50565b6131f8816130b5565b811461320357600080fd5b5056fea2646970667358221220056a942d65604d44fa78238a2b740001da77f2773ea3e41492e6307ec44f83b464736f6c63430008000033",
  "immutableReferences": {},
  "source": "//SPDX-License-Identifier: UNLICENSED\n\npragma solidity ^0.8.0;\n\nimport \"@openzeppelin/contracts/utils/Counters.sol\";\nimport \"@openzeppelin/contracts/utils/math/SafeMath.sol\";\nimport \"@openzeppelin/contracts/token/ERC721/ERC721.sol\";\n\ncontract NFiTMarket {\n    using SafeMath for uint256;\n    using Counters for Counters.Counter;\n\n    Counters.Counter private _itemNum;\n\n    enum State { Normal, Published, Pawned, Retrieval }\n\n    struct NFiTItem {\n        uint256 itemId;\n        address nftContract;\n        uint256 tokenId;\n        address payable creator;\n        address payable pawnor;\n        address payable owner;\n        uint256 sellPrice;\n        uint256 loanPrice;\n        uint256 redeemPrice;\n        uint256 royalty;\n        uint256 deadline;\n        State state;\n    }\n\n    mapping(uint256 => NFiTItem) public id2NFiTItem;\n\n    function getPublishedNFT() external view returns (uint[] memory itemIdList) {\n        uint itemId = _itemNum.current();\n        itemIdList = new uint[](itemId);\n        uint idx = 0;\n        for (uint i = 1; i <= itemId; i++) {\n            if (id2NFiTItem[i].state == State.Published) {\n                itemIdList[idx] = i;\n                idx += 1;\n            }\n        }\n        return itemIdList;\n    }\n\n    function getUserOwnedNFT(address user) external view returns (uint[] memory itemIdList) {\n        uint itemId = _itemNum.current();\n        itemIdList = new uint[](itemId);\n        uint idx = 0;\n        for (uint i = 1; i <= itemId; i++) {\n            if (id2NFiTItem[i].state == State.Normal && id2NFiTItem[i].owner == user) {\n                itemIdList[idx] = i;\n                idx += 1;\n            }\n        }\n        return itemIdList;\n    }\n\n    function getUserPawnedNFT(address user) external view returns (uint[] memory itemIdList) {\n        uint itemId = _itemNum.current();\n        itemIdList = new uint[](itemId);\n        uint idx = 0;\n        for (uint i = 1; i <= itemId; i++) {\n            if (id2NFiTItem[i].state == State.Pawned && id2NFiTItem[i].owner == user) {\n                itemIdList[idx] = i;\n                idx += 1;\n            }\n        }\n        return itemIdList;\n    }\n\n    function getUserReceivedNFT(address user) external view returns (uint[] memory itemIdList) {\n        uint itemId = _itemNum.current();\n        itemIdList = new uint[](itemId);\n        uint idx = 0;\n        for (uint i = 1; i <= itemId; i++) {\n            if (id2NFiTItem[i].state == State.Pawned && id2NFiTItem[i].pawnor == user) {\n                itemIdList[idx] = i;\n                idx += 1;\n            }\n        }\n        return itemIdList;\n    }\n\n    function getItemInfo(uint itemId) external view returns (NFiTItem memory) {\n        return id2NFiTItem[itemId];\n    }\n\n    function uploadNFT(\n        address nftContract,\n        uint256 tokenId, \n        uint256 royalty) public returns (uint256 itemId) {\n        _itemNum.increment();\n        itemId = _itemNum.current();\n        id2NFiTItem[itemId] = NFiTItem(\n            itemId,\n            nftContract,\n            tokenId,\n            payable(msg.sender),\n            payable(address(0)),\n            payable(msg.sender),\n            0,\n            0,\n            0,\n            royalty,\n            0,\n            State.Normal\n        );\n\n        IERC721(nftContract).transferFrom(msg.sender, address(this), tokenId);\n        return itemId;\n    }\n\n    function downloadNFT(uint itemId) public {\n        require(id2NFiTItem[itemId].owner == msg.sender, \"No permission to retrieve NFT\");\n        require(id2NFiTItem[itemId].state == State.Normal, \"Not Normal State Now\");\n\n        id2NFiTItem[itemId].state = State.Retrieval;\n        IERC721(id2NFiTItem[itemId].nftContract).transferFrom(address(this), msg.sender, id2NFiTItem[itemId].tokenId);\n    }\n\n    // set the NFT into Published state and prepare to sell or pawn it\n    function sellNFT (uint itemId, uint32 sellPrice, uint32 loanPrice, uint32 redeemPrice, uint32 deadline) public {\n        require(id2NFiTItem[itemId].owner == msg.sender, \"No permission to sell NFT\");\n        require(id2NFiTItem[itemId].state == State.Normal, \"Not Normal State Now\");\n        require(sellPrice > 0 || loanPrice > 0, \"Choose either sell or loan\");\n        require(redeemPrice >= loanPrice, \"The redeem price is less than loan price\");\n\n        id2NFiTItem[itemId].state = State.Published;\n        id2NFiTItem[itemId].sellPrice = sellPrice;\n        id2NFiTItem[itemId].loanPrice = loanPrice;\n        id2NFiTItem[itemId].redeemPrice = redeemPrice;\n        id2NFiTItem[itemId].deadline = deadline;\n    }\n\n    // pay for the NFT, the value would be distributed to owner and creator\n    function buyNFT (uint itemId) public payable {\n        require(id2NFiTItem[itemId].state == State.Published, \"The NFT is not in Published\");\n        require(id2NFiTItem[itemId].sellPrice > 0, \"The NFT is not for sell\");\n        require(msg.value >= id2NFiTItem[itemId].sellPrice, \"No enough value to buy\");\n        \n        id2NFiTItem[itemId].state = State.Normal;\n        id2NFiTItem[itemId].owner = payable(msg.sender);\n\n        uint256 royaltyValue = (msg.value).mul(id2NFiTItem[itemId].royalty) / 100;\n        id2NFiTItem[itemId].creator.transfer(royaltyValue);\n        id2NFiTItem[itemId].owner.transfer(msg.value - royaltyValue);\n    }\n\n    // pay for the loan, the value would be distributed to the owner and creator\n    function receiveNFT (uint itemId) public payable {\n        require(id2NFiTItem[itemId].state == State.Published, \"The NFT is not in Published\");\n        require(msg.value >= id2NFiTItem[itemId].loanPrice, \"No enough value to loan\");\n\n        id2NFiTItem[itemId].state = State.Pawned;\n        id2NFiTItem[itemId].pawnor = payable(msg.sender);\n        \n        uint royaltyValue = msg.value.mul(id2NFiTItem[itemId].royalty) / 100;\n        id2NFiTItem[itemId].creator.transfer(royaltyValue);\n        id2NFiTItem[itemId].owner.transfer(msg.value - royaltyValue);\n    }\n\n    // pay for the redeem, the value would be distributed to the pawnor and creator\n    function redeemNFT (uint itemId) public payable {\n        require(id2NFiTItem[itemId].owner == msg.sender, \"No permission to redeem NFT\");\n        require(id2NFiTItem[itemId].state == State.Pawned, \"The NFT is not in Pawned\");\n        require(msg.value >= id2NFiTItem[itemId].redeemPrice, \"No enough value to loan\");\n        require(id2NFiTItem[itemId].deadline >= block.timestamp, \"The NFT is due\");\n\n        id2NFiTItem[itemId].state = State.Normal;\n\n        uint royaltyValue = msg.value.mul(id2NFiTItem[itemId].royalty) / 100;\n        id2NFiTItem[itemId].creator.transfer(royaltyValue);\n        id2NFiTItem[itemId].pawnor.transfer(msg.value - royaltyValue);\n    }\n\n    function retrieveNFT (uint itemId) public {\n        require(id2NFiTItem[itemId].pawnor == msg.sender, \"No permission to retrieve NFT\");\n        require(id2NFiTItem[itemId].owner == msg.sender, \"No permission to redeem NFT\");\n        require(id2NFiTItem[itemId].deadline < block.timestamp, \"The NFT is not due\");\n\n        id2NFiTItem[itemId].owner = id2NFiTItem[itemId].pawnor;\n        id2NFiTItem[itemId].state = State.Normal;\n    }\n}",
  "sourcePath": "/Users/hunter/Projects/AuroraBit/NFiT-core/contracts/NFiTMarket.sol",
  "compiler": {
    "name": "solc",
    "version": "0.8.0+commit.c7dfd78e.Emscripten.clang"
  },
  "schemaVersion": "3.3.4",
  "updatedAt": "2021-09-10T01:34:28.286Z",
  "devdoc": {
    "kind": "dev",
    "methods": {},
    "version": 1
  },
  "userdoc": {
    "kind": "user",
    "methods": {},
    "version": 1
  }
}